:060000000A128A11FC2F18
:100EFC00831603138801FF308600831203131F141B
:100F0C00831603130F138110811181128112831226
:100F1C0003139F169F13831603139F13831203133C
:100F2C00981718168316031318159816831603179B
:100F3C0088018901831603139E010B11831203137D
:100F4C000C130F308800FE3081000B1DAB2F831269
:100F5C00031381010B119F140C1FB22F0C130C1EC9
:100F6C00B52F1E08F0007008F400831603131E083A
:100F7C00F0007008F30074080739F0007008F200F4
:100F8C007208F00001300310F00DFF3E031DC92F55
:100F9C000310700DF1007108F2007408F0000330BA
:100FAC000310F00CFF3E031DD62F7008F1007108E2
:100FBC00F40074088038F0007008F4007308F00036
:100FCC0006300310F00CFF3E031DE72F7008F100F4
:100FDC007108F30073087204F0007008F3007308D2
:100FEC0083120313990074089900AB2F83010A1222
:040FFC008A117E2FA9
:02400E00F4F3C9
:00000001FF
