:060000000A128A11FC2F18
:100EA600831203139F140C1F562F0C1308000B1DDF
:100EB6005A2F8312031381010B11080083160313A3
:100EC6000F138110811181120B11831203138101FB
:100ED60008008312031398171816831603131815A0
:100EE6009816831203130C130800831203131F149E
:100EF6009F169F13831603139F13831603178801E8
:100F06008901831603139E010800831603138801C3
:100F1600FF3086000A128A1161270A128A110A1204
:100F26008A1178270A128A110A128A116C270A1264
:100F36008A110F308312031388000A128A115A2766
:100F46000A128A110A128A1153270A128A110A12E0
:100F56008A115A270A128A110A128A11B5270A1209
:100F66008A11A02F831203131E08F0007008F400E4
:100F7600831603131E08F0007008F300740807397F
:100F8600F0007008F2007208F00001300310F00D56
:100F9600FF3E031DC92F0310700DF1007108F2000A
:100FA6007408F00003300310F00CFF3E031DD62F2B
:100FB6007008F1007108F40074088038F0007008B9
:100FC600F4007308F00006300310F00CFF3E031D1A
:100FD600E72F7008F1007108F30073087204F0003F
:100FE6007008F300730883120313990074089900BC
:0A0FF600080083010A128A11882FF7
:02400E00F4F3C9
:00000001FF
