:060000000A128A11FC2F18
:100EA200831203139F140C1F542F0C1308000B1DE5
:100EB200582FE1308312031381000B1108008316AF
:100EC20003130F138F12811181120B11E130831260
:100ED2000313810008008312031398171816831650
:100EE200031318159816831203130C1308008312A8
:100EF20003131F149F169F13831603139F13831646
:100F0200031788018901831603139E0108008316C3
:100F120003138801FF3086000A128A1160270A1221
:100F22008A110A128A1178270A128A110A128A1160
:100F32006C270A128A110F308312031388000A12D7
:100F42008A1158270A128A110A128A1151270A1283
:100F52008A110A128A1158270A128A110A128A1150
:100F6200B5270A128A11A02F831203131E08F0005C
:100F72007008F400831603131E08F0007008F300D3
:100F820074080739F0007008F2007208F0000130AE
:100F92000310F00DFF3E031DC92F0310700DF10069
:100FA2007108F2007408F00003300310F00CFF3EE9
:100FB200031DD62F7008F1007108F4007408803800
:100FC200F0007008F4007308F00006300310F00C13
:100FD200FF3E031DE72F7008F1007108F30073084C
:100FE2007204F0007008F30073088312031399006F
:0E0FF20074089900080083010A128A11882FE2
:02400E00F4F3C9
:00000001FF
